:100000000C9408040C944F040C944F040C944F046B
:100010000C944F040C944F040C944F040C944F0414
:100020000C944F040C944F040C9487280C94592979
:100030000C94AD230C944F040C944F040C944F0477
:100040000C944F040C944F040C944F040C944F04E4
:100050000C944F040C9422240C944F040C944F04E1
:100060000C944F040C944F040C944F040C944F04C4
:100070000C944F040C944F040C944F040C944F04B4
:100080000C944F040C944F040C944F040C944F04A4
:100090000C944F040C944F040C944F040C944F0494
:1000A0000C944F040C944F040C944F047306730685
:1000B000A506A506F2062608260826081007A507A5
:1000C000B607B6071608260826081F08C208C20881
:1000D000D408D408CB08D408D408D408C208C2086D
:1000E000D008D408D408D008FD1AE91A081B0D1B43
:1000F000121B171B1C1B211B261B2B1B301B351B0C
:100100003A1B3F1BC629ED29E52AED29E52A392AA4
:100110005C2AE52AB32AC22A00200010002202121B
:1001200000230313002404140025051500260616D9
:10013000002707170028081800290919002A0A1A99
:10014000002B0B1B002C0C1C002D0D1D002E0E1E59
:10015000002F0F1F005030400051314100523242F9
:100160000053334300543444005535450056364659
:10017000005737470058384800593949005A3A4A19
:10018000005B3B4B005C3C4C005D3D4D005F3F4FD6
:10019000008060700081617100826272008363730D
:1001A00000846474008565750086667600876777CD
:1001B0000088687800896979008A6A7A008B6B7B8D
:1001C000008C6C7C008D6D7D008F6F7F00B090A0E7
:1001D00000B191A100B292A200B393A300B494A481
:1001E00000B595A500B696A600B797A700B898A841
:1001F00000B999A900BA9AAA00BB9BAB00BD9DADFE
:1002000000BF9FAF0120001001220212012303133F
:1002100001240414012505150126061601270717D8
:100220000128081801290919012A0A1A012B0B1B98
:10023000012D0D1D012E0E1E015030400151314186
:100240000152324201563646015A3A4A015B3B4B53
:10025000015C3C4C015D3D4D015E3E4E015F3F4FF8
:1002600029000000BE00BD003C003D00CB5CCA5C24
:10027000AC00AE00AB00A800AA00A9004900350000
:100280001E001F0020002100220023002400250062
:10029000260027002D002E002A004B002B00140002
:1002A0001A000800150017001C0018000C001200AE
:1002B00013002F00300031004E00390004001600FA
:1002C000070009000A000B000D000E000F003300AC
:1002D0003400520028004A00E10000001D001B000D
:1002E0000600190005001100100036003700380024
:1002F0005100E5004C00E000E200E30000000000D7
:1003000000002C00000000000000E7000151E400A4
:1003100050004F00010000003A003B003C003D004F
:100320003E003F00400041004200430044004500C1
:1003300001000100010001000100010001000100B5
:1003400001000100010001000100010001000100A5
:10035000C35CC45CCA5CC65CC85CCC5C01000100C8
:100360000100010001000100010001000100010085
:10037000C55CCB5CC75CC95CCD5C010001000100C1
:100380000100010001000100010001000100000066
:100390000100010001000100010001000100010055
:1003A0000100010001000100010001000100010045
:1003B000000000000000010000000000000001003B
:1003C0000100010001000100290000003A003B008B
:1003D0003C003D003E003F00400041004200430021
:1003E000440045004B0035001E001F002000210086
:1003F0002200230024002500260027002D002E00C7
:100400002A004E002B0014001A00080015001700E7
:100410001C0018000C00120013002F0030003100E7
:100420004A00004404001600070009000A000B00FF
:100430000D000E000F0033003400520028004D0064
:10044000E10000001D001B0006001900050011005E
:1004500010003600370038005100E5004C00E00085
:10046000E300E2000000000000002C00000000009B
:10047000000039000043E30050004F00010000007D
:10048000BE00BD002B080808CB5CCA5CAC00AE0007
:10049000AB00A800AA00A9000100010001000100B2
:1004A0000100010001000100010001000100010044
:1004B0000100010001000100C35CC45CCA5CC65CB1
:1004C000C85CCC5C010001000100010001000100DA
:1004D0000100010001000100C55CCB5CC75CC95C88
:1004E000CD5C0100010001000100010001000100DC
:1004F00001000100010000000100010001000100F5
:1005000001000100010001000100010001000100E3
:1005100001000100010001000000000000000100D6
:1005200000000000000001000100010001000100C6
:1005300001000000680069006A006B006C006D003B
:100540006E006F000100010001000100A600010023
:100550003A003B003C003D003E003F0040004100AF
:100560004200430044004500010001000100A900D1
:10057000AE00AB000100010001000100010001001C
:10058000010001000100010001000100AA00AD000E
:10059000AC000100010001000100010001000100A8
:1005A00001004B00010001000100000001000100FA
:1005B0000100010001000100010001000100010033
:1005C0004E000100010001000100010000000000D8
:1005D0000000010000000000000001000100010017
:1005E0004A004D0000010101010101010101020267
:1005F00002020202020202030303030303030304D1
:10060000040404040404050505050506060606069B
:10061000070707070708080808090909090A0A0A55
:100620000B0B0B0C0C0C0D0D0D0E0E0E0F0F0F10F7
:100630001011111112121313141415151616171781
:10064000181819191A1A1B1B1C1D1D1E1E1F2020ED
:10065000212222232424252626272829292A2B2C37
:100660002D2D2E2F30313232333435363738393A5A
:100670003B3C3D3E3F404142434445464748494A52
:100680004C4D4E4F50515354555658595A5B5D5E20
:100690005F616264656668696B6C6D6F70727375BB
:1006A00077787A7B7D7E8082838587888A8C8E8F1F
:1006B00091939596989A9C9EA0A2A3A5A7A9ABAD4D
:1006C000AFB1B3B5B7BABCBEC0C2C4C6C9CBCDCF3B
:1006D000D1D4D6D8DBDDDFE2E4E7E9EBEEF0F3F5E9
:1006E000F8FAFDFF18034B0065007900630068000D
:1006F00072006F006E0020005100310000001203F4
:100700004B00650079006300680072006F006E00A6
:1007100000000403090409023B00020100A0FA09D9
:100720000400000103010100092111010001224020
:10073000000705810308000A090401000103000005
:1007400000092111010001226D000705820320002C
:100750000A12010002000000083434000100010107
:1007600002000105010980A101850319012AB700D2
:10077000150126B700950175108100C0050C09010F
:10078000A101850419012AA002150126A0029501E4
:1007900075108100C005010906A10185050507192D
:1007A000E029E71500250195087501810205071963
:1007B0000029EF1500250195F07501810205081942
:1007C000012905950575019102950175039101C0F7
:1007D00005010906A101050719E029E71500250112
:1007E00095087501810295017508810105071900B9
:1007F00029FF150026FF00950675088100050819D8
:10080000012905950575019102950175039101C0B6
:1008100011241FBECFEFDAE0DEBFCDBF04B603FE6A
:1008200027C08091F1059091F205A091F305B09158
:10083000F4058730904BA740B04BD1F41092F105EE
:100840001092F2051092F3051092F40514BE84B7CD
:10085000877F84BF0FB6F894A89580916000886167
:1008600080936000109260000FBEE0E0F8E309950D
:1008700012E0A0E0B1E0EEECF8E502C005900D92C8
:10088000AE3FB107D9F725E0AEEFB2E001C01D924F
:10089000A13FB207E1F70E94F0140C94652C0C9470
:1008A00000001F93CF93DF93182FD62F0E94F61EC0
:1008B000C82F882379F011110DC0D11105C061E056
:1008C00070E080E090E004C064E070E080E090E0E0
:1008D0000E9411098C2FDF91CF911F91089581E023
:1008E000089581E008950C94710408950C947504A2
:1008F0001F93CF93DF9300D000D01F92CDB7DEB708
:1009000049835A836B833091000389819A81311125
:1009100014C0662359F0222349F00E94660A182F5A
:10092000682F89819A810E940F0A03C00E943A0AA7
:10093000182F69817A81812F04C00E94660A69811B
:100940007A810F900F900F900F900F90DF91CF91C1
:100950001F910C941711FC01262F40815181628157
:10096000738184810C94780481E00895CF93DF93A0
:10097000EC0160E00E94AB04BE01DF91CF910C94CA
:1009800076040E943D130E943E050E94481B0C9471
:10099000811380E00E94011F0C947D1308950E9432
:1009A000B0080E94CE042FEF84E39CE021508040E9
:1009B0009040E1F700C000000C9448240F931F936F
:1009C000CF93DF938C0161E00E94AB04EC01B8018E
:1009D0000E947304882309F444C0B801CE010E9428
:1009E000AF1F8823F1F1B801CE010E9401208823B6
:1009F000C1F1B801CE010E942C21882391F1B801E8
:100A0000CE010E945A1E882361F1F8018281882359
:100A100009F1CB358DE5D807C1F050F4C115FCE5DF
:100A2000DF0781F0CF3DDC45A9F40E94011019C019
:100A3000CC35EDE5DE0761F0CD35DD4559F40E949A
:100A4000850E08C00E94CF040CC00E948E0E02C00A
:100A50000E94910EC801DF91CF911F910F910C94CC
:100A60006F0480E0DF91CF911F910F910895089559
:100A70000C94370581E008950C943A050895CF93BE
:100A8000C82F0E9438058C2F0E943C05CF910895F5
:100A9000CF93DF93CDB7DEB72B970FB6F894DEBFB9
:100AA0000FBECDBF4F83588769877A878B876111C7
:100AB0000E94B40E9E012F5F3F4F86E0F901119214
:100AC0008A95E9F785E0FE013796D90101900D92EC
:100AD0008A95E1F789819A814C815D81452B31F0BE
:100AE0009F3F31F491E08F3F19F403C091E001C0C2
:100AF00090E090FF09C049815A816B817C818D8192
:100B00009E810E94B40D05C0C9010E94B4048111E8
:100B1000F2CF2B960FB6F894DEBF0FBECDBFDF919C
:100B2000CF910895FC01808191810E94A80A0895C7
:100B3000CF93882309F448C0C82F8CEF8C0F813ADB
:100B4000D0F46C2F80915402909155020E94A822FB
:100B5000882349F06C2F80915402909155020E9495
:100B600033230E94E60E6C2F80915402909155021F
:100B70000E9428230CC080E28C0F883058F4C77084
:100B800081E001C0880FCA95EAF70E94970ECF91C5
:100B90000C94E60EEBE5EC0FE33040F4F0E0EC559E
:100BA000FD4F808190E0CF910C946622C85AC731E6
:100BB00058F4EC2FF0E0EE0FFF1FEA58FD4F808154
:100BC0009181CF910C947C22CF910895882349F193
:100BD000682F8CEF860F813A38F4809154029091FF
:100BE00055020E9433230CC080E2860F883050F4F7
:100BF000677081E001C0880F6A95EAF70E949D0E38
:100C00000C94E60E8BE5860F833020F480E090E0B4
:100C10000C946622685A673120F480E090E00C94CE
:100C20007C2208951F93CF93DF93182FEB010E942E
:100C30009805209741F08FE99FE00197F1F700C0F8
:100C400000002197F6CF812FDF91CF911F910C9457
:100C5000E605893319F060E070E002C060E570E0FD
:100C60000C941206882321F00E94970E0C94E60E35
:100C70000895882321F00E949D0E0C94E60E08959D
:100C8000CF92DF92EF92FF920F931F93CF93DF9358
:100C90007C01062FC72FFC01D281158112951F7090
:100CA0000E946C0E882399F0DD2389F08C2F807FC1
:100CB000803421F080E2800F883048F082E00E948A
:100CC000360F0E946C0E91E0D82ED92601C0D12C8F
:100CD000CC2EC2948FE0C8228C2D90E0FC01EA5A01
:100CE000FF4F0C94412B8C2F807FCF70882311F005
:100CF000C295C07FDD2399F0CC2309F482C180E244
:100D0000800F883010F0011104C08C2F0E94970EC4
:100D100003C08C2F0E94A70E0E94E60E72C1802F86
:100D20000E94E605CC2309F491C180E2800F88304F
:100D300010F0011104C08C2F0E949D0E03C08C2F57
:100D40000E94AD0E0E94E60E81C18C2F807FCF7075
:100D5000803211F0C295C07F002319F00130C9F034
:100D600022C0DD2371F0112341F0113031F40E94D3
:100D7000C70E8C2B0E94CF0E69C10E94C70E8C2B10
:100D80001DC0112319F0113009F460C10E94DC0E5E
:100D900025C0DD2321F0163008F058C10EC01530F3
:100DA00008F054C11BC0DD2361F0112331F0F701BD
:100DB000858180FF26C18F7085838C2F0E9432062B
:100DC00045C1112359F0093309F02CC1FFEF27EE7B
:100DD00083E0F15020408040E1F722C18C2F0E9437
:100DE000390634C18C2F86958695837019F0813031
:100DF00061F02CC1DD2321F0802F9C2F937002C065
:100E000080E090E00E94662229C1DD2321F0802F3E
:100E10009C2F937002C080E090E00E947C221EC153
:100E20008C2F837009F045C0D11114C1402F429519
:100E300046954770440F440F602F6F70862F90E0E7
:100E4000A0E0B0E0042E04C0880F991FAA1FBB1FAA
:100E50000A94D2F704FF10C00FE010E020E030E069
:100E600004C0000F111F221F331F4A95D2F70095AF
:100E700010952095309503C000E010E09801C695CC
:100E8000C695C370BC01CD01602B712B822B932BB7
:100E9000C23049F058F4C13019F00E942509DAC077
:100EA0000E941309D7C00E943709D4C00E941109BB
:100EB000D1C0DD2319F08C2F817001C08695882365
:100EC00009F4C8C0402F429546954770440F440F1F
:100ED000602F6F70862F90E0A0E0B0E0042E04C079
:100EE000880F991FAA1FBB1F0A94D2F704FF10C0D6
:100EF0000FE010E020E030E004C0000F111F221FBF
:100F0000331F4A95D2F7009510952095309503C070
:100F100000E010E09801C695C695C370BC01CD01F4
:100F2000602B712B822B932BC23049F058F4C130C7
:100F300019F00E94EA098EC00E94D8098BC00E9455
:100F4000FC0988C00E944B0985C0CF70DD2339F0B1
:100F50008C2F0E947109802F0E9432067BC0802F47
:100F60000E9439068C2F0E94920974C0023F01F141
:100F700028F4003F41F0013FA1F03FC0033FF9F0EA
:100F8000043F39F13AC0DD2341F0153008F05EC06E
:100F90008C2F8F710E94B70959C0163008F056C0C7
:100FA000F7CFDD2339F08C2F8F710E9471094EC06D
:100FB000DD23C9F38C2F8F710E94920947C0DD2376
:100FC00029F08C2F8F710E945C0940C00E94570944
:100FD0003DC0DD2349F0CF718C2F0E94710963E081
:100FE0008C2F0E941B0F32C081E00E94360F1230FE
:100FF00068F182E00E94360F29C0DD2331F0112311
:1010000091F2802F0E94980521C0112399F2093393
:1010100049F49FEFE7EEF3E09150E040F040E1F754
:1010200000C00000802F0E94E60510C04C2F4F70BA
:10103000602FC7010E9413110E94D60A0FC04C2FC7
:101040004F70602FC7010E94161108C088EF8C0DE9
:10105000843020F40E9440220E943F05DD20C9F028
:101060000E94680E80FD15C0F70112820E94620E78
:101070000E947109C7010E946A080E94620EDF91F6
:10108000CF911F910F91FF90EF90DF90CF900C9434
:101090009209DF91CF911F910F91FF90EF90DF9018
:1010A000CF9008950F931F93CF93DF93EC01688146
:1010B00079818A810E94B30A8C010E940E0A0E94E3
:1010C000FF08B801CE010E944006DF91CF911F9129
:1010D0000F910895CF93DF93EC01988189812B8143
:1010E0003C81232B31F08F3F31F481E09F3F19F495
:1010F00003C081E001C080E080FD19C0CE010E94E4
:10110000DE0481110CC00E946C0E882381F08A815C
:10111000882369F082E0DF91CF910C94360FCE01E5
:101120000E945208CE01DF91CF910C94B604DF915A
:10113000CF91089580E090E00E94662280E090E0E8
:101140000E947C220E94B40E0E94C40E0C94E60EF3
:1011500080915402909155020E943E230C949A086B
:101160000E94A40E0C94A808E92FE295EF704E2F70
:1011700050E0FA013297EE30F105B0F4EA59FF4F32
:101180000C94412B803F91F018F4883E68F40EC017
:10119000843F51F40BC0883E48F0813F29F406C0DB
:1011A00093FB882780F9089580E0089581E00895F1
:1011B000FC01808191810E94A80A0E94B4080895D0
:1011C000CF93DF9300D000D01F92CDB7DEB70F9042
:1011D0000F900F900F900F90DF91CF910895CF93C4
:1011E000DF9300D000D000D0CDB7DEB726960FB683
:1011F000F894DEBF0FBECDBFDF91CF910895089563
:1012000008950C9400090C9401090E94030960934D
:1012100041037093420380934303909344030C94DF
:101220009A080C9405090F931F93009141031091A4
:1012300042032091430330914403602B712B822B96
:10124000932B1F910F910C9405090F931F930091FD
:1012500041031091420320914303309144036023E2
:101260007123822393231F910F910C9405090F93EF
:101270001F93009141031091420320914303309149
:10128000440360277127822793271F910F910C94A5
:1012900005090C9400090E94490960933D0370936D
:1012A0003E0380933F03909340030C949A0860E0C0
:1012B00070E0CB010C944B090F931F9341E050E079
:1012C00060E070E08A019B0104C0000F111F221F23
:1012D000331F8A95D2F7C901B8011F910F910C9461
:1012E0004B090F931F9341E050E060E070E004C0B1
:1012F000440F551F661F771F8A95D2F780913D03D3
:1013000090913E03A0913F03B09140038A019B015D
:10131000082B192B2A2B3B2BC901B8011F910F91C8
:101320000C944B090F931F9341E050E060E070E094
:1013300004C0440F551F661F771F8A95D2F740954A
:1013400050956095709580913D0390913E03A091DA
:101350003F03B09140038A019B01082319232A23EC
:101360003B23C901B8011F910F910C944B090F93B6
:101370001F9341E050E060E070E004C0440F551F4F
:10138000661F771F8A95D2F780913D0390913E03A7
:10139000A0913F03B09140038A019B0108271927C0
:1013A0002A273B27C901B8011F910F910C944B09C3
:1013B0000F931F9300913D0310913E0320913F0333
:1013C00030914003602B712B822B932B1F910F9137
:1013D0000C944B090F931F9300913D0310913E0312
:1013E00020913F0330914003602371238223932394
:1013F0001F910F910C944B090F931F9300913D0384
:1014000010913E0320913F033091400360277127E4
:10141000822793271F910F910C944B0908952FE079
:10142000929F800D1124E82FE695E695E69587704A
:1014300051E001C0550F8A95EAF785E0E89FF00179
:101440001124EF5FFC4F20E030E070E04081CB01E1
:10145000022E02C0969587950A94E2F781708195D5
:1014600084278523842781932F5F3F4F25303105C3
:1014700069F708952FE0929F800D1124682F6695DB
:1014800066956695982F977085E0689FB001112446
:1014900040E050E080E0FB01E40FF51FEF5FFC4F00
:1014A000208130E0092E02C0369527950A94E2F794
:1014B00021703327042E01C0220F0A94EAF7822BF1
:1014C0004F5F5F4F4530510531F70895BF92CF927E
:1014D000DF92EF92FF920F931F93CF93DF938C01D4
:1014E000C0903D03D0903E03E0903F03F090400356
:1014F0008091410390914203A0914303B091440332
:10150000C82AD92AEA2AFB2ACFE1D0E0D701C601AE
:101510000C2E04C0B695A795979587950A94D2F797
:1015200080FD04C0219790F7B12C07C0BC2EB801F4
:101530008C2F0E9447120197A9F38B2DDF91CF9139
:101540001F910F91FF90EF90DF90CF90BF90089583
:10155000CF93DF93EC010E94660ABE010E944712FE
:10156000DF91CF9108951F93CF93DF93EB0190917B
:101570000003992321F0CB010E94A80A13C08823FD
:1015800049F0CB010E94660A182F682FCE010E94F5
:101590000F0A04C0CB010E943A0A182FBE01812F06
:1015A0000E944712DF91CF911F910895EF92FF9211
:1015B0000F931F93CF93DF938C01892B09F46CC099
:1015C000F12CEE24E394E8012196F801849184370C
:1015D00040F4843008F051C0813081F0823019F13C
:1015E0005BC0853709F444C0A8F19CE7980F903799
:1015F00008F052C08F770E94E60541C00E5F1F4F72
:10160000FE01849190E2980F983050F48770FE2D7F
:1016100001C0FF0F8A95EAF78F2F0E94B70E14C002
:101620000E9498052DC00E5F1F4FFE01849190E22D
:10163000980F983060F48770FE2D01C0FF0F8A95D7
:10164000EAF78F2F0E94BD0E0E94E60E19C00E947D
:10165000E60516C00E5F1F4FFE01C491CC2381F03A
:101660008FE99FE00197F1F700C00000C150F6CF6D
:101670000E5F1F4FFE01F49003C00E9498058E017B
:101680008F2D882309F49FCFEFE9FFE03197F1F721
:1016900000C000008150F5CFDF91CF911F910F91D5
:1016A000FF90EF9008951F93CF93DF93C091450370
:1016B00016E080914603C81799F0D0E01C9FF00116
:1016C0001D9FF00D1124E95BFC4F40815181628127
:1016D0007381848195810E94EF082196C770E9CFBC
:1016E000DF91CF911F910895409177035091780336
:1016F0006091790370917A0380917B0390917C03D0
:101700000C94EF080F931F93CF93DF9380917C038A
:1017100082958F7009F05DC080917903882309F468
:1017200058C08091450310914603609177037091F2
:101730007803C0917A03D0917B0391E06F3F09F069
:1017400090E0292F06E0811709F443C0209721F08B
:101750007F3F21F030E003C031E001C0322F90E044
:1017600030FD34C0089FF001099FF00D1124DF0106
:10177000A95BBC4F11963C911197371327C03C9140
:10178000361324C012963C91129731111FC0139644
:101790004D915C9114974C1B5D0B483C5105B0F486
:1017A00080917C038F70806180937C03E45BFC4FAD
:1017B00080818F708061808387E793E00E946A0850
:1017C000DF91CF911F910F910C94530B019687706D
:1017D000BACFDF91CF911F910F9108959F92AF9251
:1017E000BF92CF92DF92EF92FF920F931F93CF930E
:1017F000DF93CDB7DEB761970FB6F894DEBF0FBEAB
:10180000CDBF8C0185E0F801DE011D9601900D929F
:101810008A95E1F7F801E28090917703609178036F
:1018200020917A0330917B032115310531F06F3F10
:1018300031F481E09F3F19F403C081E001C080E0F2
:10184000F82FF1709F2E80FD3FC1F801408151813A
:10185000A380B48087E7C82E83E0D82EF090790368
:10186000F501E21BF30BFF2009F4D9C080917C0342
:10187000E83CF10508F095C0282F207F09F052C000
:10188000561313C0491311C0FE2CE1100EC08F7007
:10189000806180937C030E94740BC6010E946A08D9
:1018A00080917C03F80185834CC1AB2831F05F3F08
:1018B00031F481E04F3F19F403C081E001C080E0C2
:1018C00080FD03C081E08E2502C080E090E0F82F0B
:1018D000F170FF2E80FF1CC08091450320914603CC
:1018E00036E0821709F40BC190E0389FF001399F70
:1018F000F00D1124E95BFC4F6181561306C0608135
:10190000461303C06281E61203C001968770E9CFD7
:10191000FE2CEE2009F415C180917C038160809338
:101920007C0354C0561306C0491304C0E11002C022
:10193000F80199C0C8010E94D808882361F1EE20FF
:1019400051F120917C03822F82958F7090E0029755
:1019500074F0809177039091780398878F8319862C
:10196000BB86AA862C87CE0107960E946A0886E06D
:10197000F801A7E7B3E001900D928A95E1F70E9484
:10198000820B0E94740B0AC0561711F1C8010E9405
:10199000D80881112CC0C8010E946A08FF24F39462
:1019A000D0C0282F207F81F77A2DB98AA88A6E2D82
:1019B00089890E94E00887E793E00E946A0886E030
:1019C000F60111928A95E9F70E94740BF12CB9C0C7
:1019D0004913DCCFE110DACFF8018583C8010E94FA
:1019E0006A0886E0F60111928A95E9F7AAC0EE200E
:1019F00091F220917C03822F82958F7090E0029764
:101A00000CF4B5CF80917703909178039A83898302
:101A10001B82BD82AC822E83CE010196A6CFE83C0C
:101A2000F10508F044C0FE2CEE2009F4B4CF5613A3
:101A300030C049132EC020917C0320FD21C0822F8D
:101A400082958F70482F50E041155105C9F0F8017B
:101A500025834F30510541F08F5F982F9295907FED
:101A6000822F8F70892B8583C8010E946A0886E0C7
:101A7000F801A7E7B3E001900D928A95E1F73CC029
:101A800086E0F801A7E7B3E001900D928A95E1F7AF
:101A900058C0C8010E94D808811169CF80917C0389
:101AA000816080937C03C8010E946A084AC07A2D35
:101AB000B98AA88A6E2D89890E94E00886E0F6011D
:101AC00011928A95E9F718C0EE2009F464CFC80195
:101AD0000E94D808F82E882309F45DCF86E0F8012B
:101AE000A7E7B3E001900D928A95E1F787E793E0CD
:101AF0000E9492050E94820B0E94740B22C04D87A7
:101B00005E878D859E850E94A80A292F22952F70B9
:101B1000223028F49F7039F0811105C00BC02430A9
:101B200028F49F7049F4805E883020F0C8010E943C
:101B30006A089F2CF92C05C0F8019581907F99F7D0
:101B4000F9CF8F2D61960FB6F894DEBF0FBECDBFD3
:101B5000DF91CF911F910F91FF90EF90DF90CF9089
:101B6000BF90AF909F9008951F93CF93DF93CDB711
:101B7000DEB72C970FB6F894DEBF0FBECDBF4F83F4
:101B8000588769877A878B879C87CE0107960E9442
:101B9000EE0B8823D1F09F8188852A853B85232BF6
:101BA00031F08F3F31F481E09F3F19F403C081E0B1
:101BB00001C080E080FD47C04F81588569857A85E6
:101BC0008B859C850E94EF083EC086E0FE0137961B
:101BD000DE01119601900D928A95E1F7FF81E8856B
:101BE0006A857B856115710531F0EF3F31F481E045
:101BF000FF3F19F403C081E001C080E080FD23C0F5
:101C00002091460330E0C9010196877099274091E1
:101C1000450350E084179507F1F1F983EA837D834A
:101C20006C8396E0929FD001939FB00D1124A95B25
:101C3000BC4FFE01319601900D929A95E1F7809389
:101C400046030E94530B16E0809145039091460392
:101C5000891771F1189FC0011124895B9C4F0E9464
:101C6000EE0B882329F1E09145031E9FF00111241A
:101C7000E95BFC4F40815181628173818481958150
:101C80000E94EF088091450390E0019687709927A4
:101C900080934503D9CF0E94B0081092460310925A
:101CA0004503E7E7F3E086E0DF011D928A95E9F757
:101CB0002C960FB6F894DEBF0FBECDBFDF91CF914B
:101CC0001F91089580917D0385958595859508954B
:101CD00080917D038770089590917D03977081E0D6
:101CE00009F480E008959091290492FB222720F9BD
:101CF000281751F080FB92F99093290480912804D1
:101D0000909129040C947D0F08958091290482FB01
:101D1000882780F991E089270C94730E81E00C9458
:101D2000730E80E00C94730E8091A103089590913E
:101D3000A103892B8093A103089580959091A1031D
:101D400089238093A10308951092A103089590918F
:101D5000A003892B8093A003089580959091A00300
:101D600089238093A00308951092A0030895909171
:101D70009F03892B80939F030895809590919F03E3
:101D8000892380939F03089510929F030895809163
:101D90007E03089508950C94CA0E0C94CB0E909176
:101DA000290492FD08C090917E03981721F080933A
:101DB0007E030C94CD0E089580917E03882329F034
:101DC00010927E0380E00C94CD0E0895E0915402B1
:101DD000F09155028091A1038083E0915402F0912B
:101DE000550290818091A003892B8083E091540259
:101DF000F0915502908180919F03892B808380917F
:101E00007E03882381F0E0915402F0915502908185
:101E1000892B808380915402909155020E949222D6
:101E200081110E94DC0E80915402909155020C9415
:101E30004C220C94CA0E9091290492FD10C098E097
:101E4000899F90011124262B20937D030E94710904
:101E500080917D038595859585950C94190F0C943B
:101E6000710910927D0380E00C94190F20917D037D
:101E70008095822380937D03982F977041F430E002
:101E8000482F082E000C550B2417350721F490918C
:101E9000290492FF07C08595859585950E94920932
:101EA0000C94310F08956FEF7FEF80E090E00C9479
:101EB000FC2B80E090E00E94C82B21E0893E9E4FE1
:101EC00009F020E0822F089582E090E00C94C02B6E
:101ED00083E090E00C94C02BCF9384E090E00E94CC
:101EE000C02BC82F82E290E00E94C02B2C2F30E044
:101EF000A901582BCA01CF910895CF93C92F682FFC
:101F000084E090E00E94DE2B6C2F82E290E0CF9183
:101F10000C94DE2BAB01BC018FE090E00C94F02B15
:101F2000AB01BC0183E190E00C94F02B60E070E029
:101F3000CB010C94900F60E070E0CB010E948A0FFF
:101F40000C94960F69EE7EEF80E090E00E94FC2BEF
:101F500060E082E090E00E94DE2B60E083E090E0B1
:101F60000E94DE2B10924103109242031092430311
:101F70001092440360E084E090E00E94DE2B60E079
:101F800082E290E00E94DE2B60E085E090E00E941B
:101F9000DE2B60E086E090E00E94DE2B6FEF87E0B2
:101FA00090E00E94DE2B40E050E0BA0188E090E033
:101FB0000E94F02B60E08DE090E00E94DE2B40E07C
:101FC00050E0BA0188E190E00E94F02B60E087E1E8
:101FD00090E00E94DE2B40E050E0BA018CE190E0FE
:101FE0000E94F02B60E070E080E290E00E94FC2B09
:101FF00040E050E0BA0188E190E00E94F02B0C94A0
:102000009B0F0C94A20F682F8EE090E00C94DE2BB7
:102010000E94EB236093B3037093B4038093B503E2
:102020009093B6036093AF037093B0038093B103B2
:102030009093B203089585B7806885BF85B780689F
:1020400085BF089581E008950C94221008950C94A2
:1020500026100C9426100C9429100C9426100C9425
:102060002D100C9426100E941B1083E293E10E9415
:102070006C240E9431100C942F100E9427100C9495
:1020800026100E94D6230E945714E8E2F4E08081D3
:102090008068808380912804909129040E947D0F9C
:1020A0000E94FC1E0C942B106F927F928F929F9235
:1020B000AF92BF92CF92DF92EF92FF920F931F9356
:1020C000CF93DF93CDB7DEB72A970FB6F894DEBF74
:1020D0000FBECDBF0E946A1481110E94081033EA1E
:1020E000832E33E0932E00E010E0E02E802F0E943C
:1020F00061135C01F401619071904F0168267926AB
:1021000061147104B1F40F5F1F4F0630110569F7B8
:102110008FEF89838A831B820E94DF238160782F5F
:102120009D838C8349815A816B818D810E944805F2
:1021300043C08091B70381FD0E947113F12CCC2420
:10214000C394D12CC3018C219D21892B71F10E9454
:102150002410AC20BD208823A1F0FE82EF8281E014
:10216000A114B10409F480E088870E94DF23816014
:10217000782F9A8789874E815F8168858A850E943A
:102180004805000F111FF801ED55FC4F808191812A
:10219000C826D926D182C08241E0AB2809F440E0AC
:1021A0006F2D8E2D0E94371A07C0F394CC0CDD1CC6
:1021B000FFE0FF12C7CFA7CF0E945B1A0E94402208
:1021C0009091A2038917D1F00E9440228093A2032C
:1021D0002A960FB6F894DEBF0FBECDBFDF91CF9128
:1021E0001F910F91FF90EF90DF90CF90BF90AF9035
:1021F0009F908F907F906F900C943F052A960FB61A
:10220000F894DEBF0FBECDBFDF91CF911F910F912C
:10221000FF90EF90DF90CF90BF90AF909F908F9006
:102220007F906F90089580E090E0089508952AE5EA
:10223000829FC0011124FC012FE0729FE00DF11D6F
:102240001124E60FF11DEE0FFF1FE05AFD4F85919F
:1022500094910895880F991FFC01EC51FA4F8591D4
:1022600094910895CF93DF930E944C12EC01811555
:1022700020E5920708F041C0811540E4940708F07A
:10228000CBC0803E910520F5803C910508F0B8C098
:10229000883A910570F4853A910508F0A8C081301C
:1022A000910509F4A1C008F4EBC0049708F0EBC055
:1022B000E7C08F3B910508F0E3C0885AC82FD0E0F3
:1022C000CC0FDD1FC955DD4F888199819464DCC036
:1022D000811550E2950750F4C11581E0D80708F048
:1022E000D2C0C83ED10508F4CEC0CAC0811520E3D3
:1022F000920708F08AC09F7085C0811545E5940754
:1023000008F046C0811554E5950708F09DC0C11539
:1023100082E5D80718F5C11521E5D20708F07FC07E
:10232000CE01F4E096958795FA95E1F7282F237072
:102330003C2F337081E090E002C0880F991F3A95DE
:10234000E2F79C68922B2C2F2F702695269540E261
:10235000249F90011124822B932B96C09E01237001
:1023600033279C2F96959695C115D34508F05CC0F0
:1023700041E050E002C0440F551F2A95E2F780E289
:10238000989F90011124CA01822B932B9C687CC0DA
:10239000811559E5950798F4C11588E5D80708F027
:1023A00058C0C11526E5D20708F06AC08C2F0E94DC
:1023B000E0128F7190E0982F8827906265C0811598
:1023C0004AE5940708F44AC090568115904208F0F7
:1023D00057C08D2F8F710E94E0129E01332730620B
:1023E0008F71A901582B4AC081E090E04DC0855AF9
:1023F000C82FD0E0CB52DD4F888190E0906444C07C
:10240000805C91090E942A113FC09927D3FF02C026
:10241000986C3AC0906C38C09F70906A35C09C2F01
:102420008827816F906A30C041E050E002C0440FBD
:10243000551F2A95E2F780E2989F90011124CA0166
:10244000822B932B9A6820C0982F8827846F906ADC
:102450001BC09C2F8827806F906A16C08F700E94C7
:10246000E0129E0194E0369527959A95E1F72F703A
:1024700030E0322F22273069A901482BCA0104C05D
:1024800080E090E001C0CE01DF91CF9108950E94DD
:1024900017110E94321108958238910569F1B0F444
:1024A0008133910509F46DC048F48932910509F42E
:1024B00063C08A32910509F469C008958533910596
:1024C00009F455C089339105B9F00895833E91050B
:1024D00069F138F4803E9105B1F0823E910509F131
:1024E0000895863E9105A9F1873E9105B9F1843E94
:1024F000910509F064C023C02091280420FD4FC03D
:1025000021FD4DC008958091280480FD44C0809134
:10251000290480FF44C08091280484FD42C083EEDA
:102520004DC08091280482FF38C0F5CF80912804E7
:1025300082FD33C08091290480FD31C0ECCF8091B1
:10254000290481FF32C08091280484FD2AC087EECF
:1025500035C08091280483FF26C0F5CF80912804E0
:1025600083FD21C08091290481FD1FC0ECCF8091A3
:10257000280485FD1CC01DC08091280485FD19C05C
:1025800016C08091280486FD16C017C080912804CB
:1025900086FD13C010C089E311C082EE0FC080EE2B
:1025A0000DC080E00BC086EE09C084EE07C089E252
:1025B00005C085E303C08AE201C081E390E008958D
:1025C0009091280492FF0DC0282F2871283019F40B
:1025D000877F846006C0282F2471243011F48B7FFC
:1025E000886093FF0DC0282F2871283119F4877E49
:1025F000846106C0282F2471243111F48B7E8861F8
:102600002091290420FF0DC0382F3871383019F47B
:10261000877F816006C0382F3171313011F48E7F91
:10262000886021FF0DC0282F2871283119F4877E7A
:10263000816106C0282F2171213111F48E7E8861BD
:1026400094FD877E089580E008950C94530F0E94B6
:102650006A148FE39CE90197F1F700C000000E9423
:102660006A1480E00E94611380FF04C00E94251359
:102670000C94482408950C9427130E94590F81113B
:1026800002C00E9401100E94640F8093B7030E9451
:102690006C0F90932904809328040E943B130E949E
:1026A000680F682F70E080E090E00E94110960914F
:1026B0003D0370913E0380913F03909140030C9441
:1026C000490990E0880F991FDC01AA5CBB4FFC010F
:1026D000E659FD4F2D913C91808191818223932376
:1026E0000895089580EA8A95F1F7089500C0089545
:1026F0000C94721308950C947A130C947B130C941D
:102700007A130C947F1390E0880F991FFC014423E7
:1027100019F0E65DFB4F02C0EA5CFB4F80819181BE
:1027200021E030E002C0220F331F6A95E2F7282330
:10273000392381E0232B09F480E00895F894E82FF1
:10274000E295EF70F0E031A1282F2F7081E090E04A
:1027500001C0880F2A95EAF7982F9095932391A3AB
:1027600092A1892B82A3789408950F931F93CF93FE
:10277000DF93C8EDD2E089918F3F11F00E949E1344
:1027800082E0C73ED807B9F7C7EED2E00DEE12E0FF
:1027900089918F3F11F00E949E130C171D07C1F7FE
:1027A000DF91CF911F910F910895CF92DF92FF9209
:1027B0000F931F93CF93DF93062F10E008521D4F06
:1027C000D8012C912F3F09F46AC0C62FD92FF82EBB
:1027D000F894E22FE295EF70F0E031A12F70CC2455
:1027E000C394D12CC60101C0880F2A95EAF7932F14
:1027F000982B91A392A18095892382A378940E941B
:10280000761396010C2E02C0220F331F0A94E2F7B2
:10281000B9016095709597EEC92E92E0D92EEF2DF3
:10282000FD2FAF01445F5F4FD0E0D601FD906D01F9
:10283000BFEFFB16C9F08F2D82958F7090E0DC0101
:1028400090968C9190E0BF2DBF7002C095958795B2
:10285000BA95E2F780FD08C080819181822B932B8D
:1028600091838083D1E006C0808191818623972364
:10287000918380833296E417F507B9F6F8018081D9
:102880008F3F11F00E949E136D2F8C2FDF91CF91FF
:102890001F910F91FF90DF90CF900C947813DF91F0
:1028A000CF911F910F91FF90DF90CF9008950E94DC
:1028B000B513EAE2F4E0A6E3B4E0119211921D929E
:1028C0001D9284E0E633F807C1F786E00E94B51454
:1028D0000C94C104FF920F931F93CF93DF93CDB756
:1028E000DEB72C970FB6F894DEBF0FBECDBF8E01BA
:1028F0000F5F1F4F8CE0F80111928A95E9F7F12CD8
:102900006F2DC8010E94D513F394FFE0FF12F8CF9A
:102910004CE050E0B8018AE294E00E94A32BFF242F
:10292000F394009709F4F12C892B41F08CE0F80125
:10293000AAE2B4E001900D928A95E1F72F2D46E0CE
:1029400066E374E08AE294E00E94B6140E94C9042F
:102950008F2D2C960FB6F894DEBF0FBECDBFDF9142
:10296000CF911F910F91FF9008950895FF920F93BB
:102970001F93CF93DF93F82E092F162FD72FC42F35
:10298000222349F081E08093BA030E94DF239093D1
:10299000B9038093B8038091BA038823D9F080915A
:1029A000B8039091B9030E94F723059798F0EF2D93
:1029B000F02FA12FBD2F80E090E04C2F50E0841726
:1029C000950734F4219131912D933D930196F7CFE2
:1029D0001092BA03DF91CF911F910F91FF9008954C
:1029E0000E9450230E94C4250E94DD250E94EF25ED
:1029F0000E943D10FBCFEF92FF920F931F93CF9356
:102A0000DF938B01682F11110AC0442329F0E82FAE
:102A1000F0E0EC51FA4F6491762F862F75C0212F8C
:102A200030E0E82FF0E0442321F0EC51FA4FE4913C
:102A3000F0E046E0049FC0011124CFEFD0E0BE01DA
:102A40000E94192B4BEA4603C001479F900D1124A9
:102A5000800F911D800F911D982F990F890FAE0146
:102A6000421B530B4E9FD0014F9FB00D5E9FB00D88
:102A700011249B2F189FA0011124452F55278E014B
:102A8000041B150B0E9FA0010F9F500D1E9F500D94
:102A900011247E01E81AF108E29E8001E39E100DE8
:102AA000F29E100D1124212F3327C21BD30BCE9F72
:102AB0009001CF9F300DDE9F300D112462307105E3
:102AC000A9F048F46115710569F061307105C9F428
:102AD0008B2F752F0DC06430710581F058F0663072
:102AE000710579F47E2F8B2F932F0DC0832F7B2FB1
:102AF0009E2F09C08E2F7B2F952F05C08E2F732FF1
:102B000002C07E2F852F692FDF91CF911F910F91EA
:102B1000FF90EF90089541E00E94FB14089520E09B
:102B200030E0869F212D969F200D311D1124C90173
:102B30000895BC018230910508F40895613E8EE14C
:102B4000780748F49B0195E0369527959A95E1F72B
:102B500048E0420F01C04FEF91E0242F30E0290FF1
:102B6000311D35952795229FF001239FF00DF00D23
:102B700011246E177F0718F44FEF420F04C02F3F48
:102B800039F091E0920F491740F78FEF890F0895C0
:102B90008FEF0895482F982F46FD9095E92FEF73FA
:102BA0009F7046FD9F5FE295EF70EE0FF0E0E351FE
:102BB000FD4F2181299F802D212D112482958F7019
:102BC0002295207F822B3081982F930F892F47FDEC
:102BD000819580580895622F0895E42FF0E0EE0F5C
:102BE000FF1FE25AFE4F6081621B0895E42FF0E060
:102BF000EE0FFF1FE15AFE4F6081621B0895A22F66
:102C000050E0FA01EE0FFF1FE15AFE4F9081905203
:102C100097FD9195440F551FFA01E25AFE4F3081FE
:102C2000232F30E02A1B3109290F311D97FD3A95DA
:102C3000620F0895EF920F931F9393E0099F800115
:102C40001124159507956E2D600F1F910F91EF9030
:102C500008950F93CF93DF93D72FC82F47FD41954A
:102C6000E8E3F0E0CF01841B910947FD9395889F2D
:102C7000B001899F700D700D1124229FC001239F08
:102C8000900D900D1124860F971F0E949915682FA3
:102C9000660F860F682F600F7D2F8C2FDF91CF91ED
:102CA0000F9108950F931F93522F10E0F801EE0F2C
:102CB000FF1FE15AFE4FE081F0E0B0979F01520301
:102CC000D001539FB00D1124000F111FF801E25ADB
:102CD000FE4F008110E00057110940039001419F11
:102CE000300D11242A0F3B1F37FF02C021583F4FE0
:102CF000220F232F221F330B620F1F910F91089574
:102D00000F931F93522F10E0F801EE0FFF1FE15AAF
:102D1000FE4FE081F0E0B097EE0FFF1F9F015203DE
:102D2000D001539FB00D1124000F111FF801E25A7A
:102D3000FE4F008110E000571109000F111F4003E2
:102D40009001419F300D11242A0F3B1F37FF02C015
:102D500021583F4F220F232F221F330B620F1F9149
:102D60000F910895FC019B01AC0197FF04C044271B
:102D70005527481B590BBA01620F731F37FD0CC052
:102D8000241B350BC901A5E0880F991FAA95E1F70F
:102D90000E942D2B80E20CC0CB0165E0880F991FAB
:102DA0006A95E1F7BA01621B730B0E942D2B80E636
:102DB000861BF7FD81950895EF920F93CF93DF93D4
:102DC000D72FC82FC9010E19009721F457FF06C04D
:102DD00080E805C0BA010E94B21601C080E0602FF1
:102DE000681B7D2F8C2FDF91CF910F91EF9008956D
:102DF0000F93CF93DF93D72FC82FC901009721F4EA
:102E000057FF06C080E805C0BA010E94B21601C093
:102E100080E0602F680F7D2F8C2FDF91CF910F9175
:102E200008950E948B15089546E050E06CE170E033
:102E300082E494E00C94B02B46E050E06CE170E04A
:102E400082E494E00C94CE2BE2E4F4E081E1808310
:102E50008091670290916802A091690281839283B8
:102E6000A3838FE784838FEF85830C941C17E091F5
:102E7000FB02F091FC020994E091F702F091F80254
:102E800009944F925F926F927F928F929F92AF922E
:102E9000BF92CF92DF92EF920F931F93CF93DF9366
:102EA0002C013B01FC01C08181E1C89FC02D112490
:102EB000D1E1DC0FD33508F0D2E560914604669588
:102EC00080914804909149040E948F15182FCD17C6
:102ED00008F044C08C2E912CF401EE5FFD4F9081E0
:102EE000F20181818923C1F1F401EE0FFF1FE25A43
:102EF000FE4FC080D12CF0E7CF1AD108F401EE0FBD
:102F0000FF1FE15AFE4FA080B12C80E2A81AB10841
:102F1000CC9C9001CD9C300D300D1124AA9CC00199
:102F2000AB9C900D900D1124820F931F0E94991558
:102F3000082F609143047091440480914504E12E70
:102F40009501A601F30109950E941117462F282F1C
:102F5000672FC4010E943C17CF5FB9CF81E0D23503
:102F600008F080E0DF91CF911F910F91EF90DF90FB
:102F7000CF90BF90AF909F908F907F906F905F9019
:102F80004F9008956AE176E10C9441176CED76E17B
:102F90000C944117AF92BF92CF92DF92EF92FF92C3
:102FA0000F931F93CF93DF936C015B01FC01C081F2
:102FB00081E1C89FC02D1124D1E1DC0FD33508F089
:102FC000D2E5609146046695809148049091490449
:102FD0000E948F15182FCD1778F5EC2EF12CF701E4
:102FE000EE5FFD4F9081F6018181892319F1F70190
:102FF000EE0FFF1FE15AFE4F208130E020523109D1
:10300000F701EE0FFF1FE25AFE4F408150E040579C
:103010005109609143047091440480914504012F4B
:10302000F50109950E941117462F282F672FC70118
:103030000E943C17CF5FCFCF81E0D23508F080E00F
:10304000DF91CF911F910F91FF90EF90DF90CF9084
:10305000BF90AF90089569E276E10C94CA1768EFCB
:1030600076E10C94CA17BF92CF92DF92EF92FF9253
:103070000F931F93CF93DF938C017B01FC01C081E1
:1030800081E1C89FC02D1124D1E1DC0FD33508F0B8
:10309000D2E5609146046695669521E0620F08F4DA
:1030A0006FEF80914804909149040E948F15B82ECB
:1030B000CD17F0F4CC2ED12CF601EE5FFD4F9081B0
:1030C000F8018181892391F0609143047091440457
:1030D000809145042B2D4C2FF70109950E94111763
:1030E000462F282F672FC6010E943C17CF5FE0CFE5
:1030F00081E0D23508F080E0DF91CF911F910F91F0
:10310000FF90EF90DF90CF90BF9008956BEE75E148
:103110000C9433186DEE75E10C94331866EF75E17D
:103120000C9433186FEF75E10C9433187F928F92E3
:103130009F92AF92BF92CF92DF92EF92FF920F9346
:103140001F93CF93DF936C015B01FC01C08181E190
:10315000C89FC02D1124D1E1DC0FD33508F0D2E592
:103160006091460466956695809148049091490463
:103170000E948F15182F80E4810F0E94CA1590E8D5
:10318000F92EF80E812F0E94CA1520E8722E780EB3
:10319000CD1700F58C2E912CF401EE5FFD4F908140
:1031A000F60181818923A1F0609143047091440468
:1031B00080914504E12E0C2F272D4F2DF501099507
:1031C0000E941117462F282F672FC4010E943C1719
:1031D000CF5FDECF81E0D23508F080E0DF91CF9184
:1031E0001F910F91FF90EF90DF90CF90BF90AF9025
:1031F0009F908F907F90089562E576E10C949618E9
:1032000060E876E10C949618DF92EF92FF920F93AC
:103210001F93CF93DF938C01DC018C91C1E18C9FD4
:10322000C02D1124D1E1DC0FD33508F0D2E5609137
:10323000430470914404809145040E941117F62EB6
:10324000E72ED82ECD1798F4EC2FF0E0DF01AE5F1B
:10325000BD4F8C91D80111969C91982331F02D2D62
:103260004F2D6E2DCF010E943C17CF5FEBCF81E039
:10327000D23508F080E0DF91CF911F910F91FF9040
:10328000EF90DF900895DF92EF92FF920F931F93DC
:10329000CF93DF938C01DC01CC9181E1C89FC02DDD
:1032A0001124D1E1DC0FD33508F0D2E5E0904304DE
:1032B000F0904404D090450460914604669566956C
:1032C000669580914804909149040E948F150E9450
:1032D000CA15805887FD8195880F282F3D2D239F83
:1032E000212D1124822FB7010E941117F62EE72EEF
:1032F000D82ECD1798F4EC2FF0E0DF01AE5FBD4F74
:103300008C91D80111969C91982331F02D2D4F2D41
:103310006E2DCF010E943C17CF5FEBCF81E0D235FD
:1033200008F080E0DF91CF911F910F91FF90EF9017
:10333000DF900895DF92EF92FF920F931F93CF9348
:10334000DF93EC01FC01EE5FFD4F9081692381F179
:10335000D09044040091450410914304E12EF12CD7
:103360000E94932B282FC7018C549F4F68E671E071
:103370000E942D2B8E199F0997FD03969595879591
:10338000959587952370612F289F600D11247D2DC1
:10339000802F0E941117462F282F672FCE01DF9113
:1033A000CF911F910F91FF90EF90DF900C943C17FD
:1033B000DF91CF911F910F91FF90EF90DF900895D3
:1033C000CF92DF92FF920F931F93CF93DF938C01E5
:1033D000FC01C281C1111DC06091460420E1620F51
:1033E00008F46FEF80914804909149040E948F1572
:1033F0006AE070E00E94192B892B59F50E94932BEB
:1034000062E570E00E942D2BF80161810E949A19FB
:1034100020C0FC018081C1E18C9FC02D112491E16D
:10342000F92EFC0EF2E5FF1510F482E5F82ED0E03F
:10343000CF2CD12CCC15DD053CF4F8016181CE01F7
:103440000E949A192196F6CFC1E0F1E5FF1508F424
:10345000C0E08C2FDF91CF911F910F91FF90DF90F3
:10346000CF900895E091F902F091FA0209940C943A
:10347000221008950C94391A0E943A1A0C94391AA1
:1034800008950C94401ACF93DF93FC01C081C15082
:1034900081E1C89FC02D1124D1E1DC0FD33508F0A4
:1034A000D2E56D2F8C2F0E94411A6D2F8C2FDF914A
:1034B000CF910C94401ACF930E94EB236093BB03EF
:1034C0007093BC038093BD039093BE03309142047C
:1034D000232F237021F0C32FC695C69501C0C0E0ED
:1034E00020915602213091F028F0223091F12330C2
:1034F000E1F1CCC0109257026093480470934904E4
:1035000080934A0490934B0481E02CC090915A021E
:10351000C9130DC0832F837090E040915B0250E08F
:1035200021E08417950709F420E0822F01C081E093
:1035300081708093590280914704909158029817A6
:1035400071F18093580240E060E080E00E94321AFE
:1035500026C0C0935A02832F837080935B020E941F
:10356000371783E08093560291C08091BF03811189
:103570000E941C171092BF03609148047091490487
:1035800080914A0490914B040E9406246031710599
:103590008105910508F47AC01092560277C08C2FED
:1035A00090E08E30910520F1809157028F5F8093DB
:1035B000570282E08093560280915902811114C013
:1035C000CC2379F20E943C1A87E592E0CF910C94CB
:1035D000431A87E592E00E940419909157029F5F79
:1035E00090935702882329F3CC2309F44FC0EACFE4
:1035F000FC01EC58FF4F0C94412B80915902882319
:1036000009F442C040E060E080E00E94321A3CC011
:1036100087E592E00E944319E0CF87E592E00E949F
:103620008618DBCF87E592E00E948A18D6CF87E51F
:1036300092E00E948E18D1CF87E592E00E94921806
:10364000CCCF87E592E00E94C217C7CF87E592E012
:103650000E942B18C2CF87E592E00E942F18BDCFA1
:1036600087E592E00E94C617B8CF87E592E00E94F6
:10367000FC18B3CF87E592E00E940019AECF87E532
:1036800092E00E94E019A9CF80E0A7CFCF910895E2
:10369000E091F502F091F60209950E94590F81110F
:1036A00004C00E9401100E9424170E9414178091E8
:1036B00042048C7F11F40C94241708950895E2E4D9
:1036C000F4E0208191E0922790831092560290912D
:1036D000BF03892B8093BF03089581E00C945F1B87
:1036E000909142049370A1F0811102C0946007C0D0
:1036F0008E3010F0946303C0880F880F982B90933E
:103700004204109256028091BF03682B6093BF035E
:10371000089561E00C94701B682F90914204969577
:1037200096959F5F9E3010F4892F01C081E00C9424
:10373000701B81E00C948C1B682F9091420496952D
:103740009695915011F0892F01C08DE00C94701B5B
:1037500081E00C949C1B90914204937059F08093EB
:10376000430460934404409345048091BF03282B95
:103770002093BF030895A2E4B4E01196EC91119751
:10378000F0E0282F13964C91139712966C91CF016D
:1037900008960C94AB1B81E00C94BB1BA2E4B4E034
:1037A0001196EC911197F0E0282F13964C911397F6
:1037B00012966C91CF0108970C94AB1B81E00C948E
:1037C000CE1BE2E4F4E0628120E1620F08F46FEFC7
:1037D0009181282F4381892F90E00C94AB1B81E0CD
:1037E0000C94E11BE2E4F4E0628120E1621B08F446
:1037F00060E09181282F4381892F90E00C94AB1BCE
:1038000081E00C94F21BE2E4F4E0438120E1420FFA
:1038100008F44FEF9181282F6281892F90E00C945A
:10382000AB1B81E00C94031CE2E4F4E0438120E153
:10383000421B08F440E09181282F6281892F90E09B
:103840000C94AB1B81E00C94141C80934604809173
:10385000BF03682B6093BF0308952091460430E1B5
:10386000230F08F42FEF682F822F0C94251C81E082
:103870000C942D1C2091460430E1231B08F420E019
:10388000682F822F0C94251C81E00C943A1C60E078
:1038900080E50E94E61D61E08FE50C94E61DCF9364
:1038A0000E945D2160E080E50E94AF1C60E08FE532
:1038B0000E94AF1CC0E021E041E061E08C2F0E943B
:1038C000441DCF5FC235B9F760E080E50E94181E45
:1038D00061E08FE5CF910C94181E6093CC05409366
:1038E000CD0524E630E042E050E06CEC75E0880F56
:1038F0000E94142221E0892B09F020E0822F0895F4
:10390000EF92FF921F93CF93DF937B01182F110F3C
:10391000C0E0D0E0C093CC05D701AC0FBD1FEDECEB
:10392000F5E08D91819385E0ED3DF807D1F724E630
:1039300030E041E150E06CEC75E0812F0E941422F0
:10394000892B31F46096C03CD10521F781E001C09C
:1039500080E0DF91CF911F91FF90EF9008951F932A
:10396000CF93DF93C82FD62F45EC6EEF0E946D1CCE
:1039700040E06DEF8C2F0E946D1C10E040E0612F45
:103980008C2F0E946D1C1F5F1831C1F745EC6EEF44
:103990008C2F0E946D1C41E06DEF8C2F0E946D1CDE
:1039A00010E040E0612F8C2F0E946D1C1F5F103CC7
:1039B000C1F745EC6EEF8C2F0E946D1C43E06DEF5C
:1039C0008C2F0E946D1C4FEF61E08C2F0E946D1CAC
:1039D00080E4D89FA0011124416060E08C2F0E94F8
:1039E0006D1C8FE39CE90197F1F700C00000DF91A7
:1039F000CF911F9108958235910558F5FC01EE0F86
:103A0000FF1FEE0FFF1FDF01A85EBE4FCD01029624
:103A1000FC0154910196FC013491FD018591837064
:103A20007491E82FF0E0A0EC8A9FC0011124845B20
:103A30009B4FDC01A70FB11D6C93DC01A50FB11DDD
:103A40004C93DC01A30FB11D2C93EE50FC4F81E091
:103A500080830895FF920F931F93CF93DF93182FC6
:103A6000062FF42EC0E0D0E02F2D402F612FCE0185
:103A70000E94FB1C2196C235D105B1F7DF91CF9191
:103A80001F910F91FF900895CF93DF9334E0839FB0
:103A9000C0011124EC01C85EDE4FDE01FE0111966B
:103AA0008591837054911196FD0194913196C49142
:103AB000A52FA695A695A695392F369536953695B8
:103AC000EC2FE695E695E6955770F92FF770C770DD
:103AD00090E0B0E0D8E1662391F0D89FB001D99F83
:103AE000700D11246E537C4FA60FB71F61E070E07C
:103AF00001C0660F5A95EAF75C91652B12C0D89FFA
:103B0000B001D99F700D11246E537C4FA60FB71FC3
:103B100061E070E001C0660F5A95EAF760955C912C
:103B200065236C93632F70E038E1389FD001399F93
:103B3000B00D1124AE53BC4FA60FB71F442349F05C
:103B400041E050E001C0440FFA95EAF73C91432B65
:103B500009C041E050E001C0440FFA95EAF74095F2
:103B60003C9143234C934E2F50E0222399F028E1BF
:103B7000289FF001299FF00D1124EE53FC4FE40F14
:103B8000F51F21E030E001C0220FCA95EAF730812D
:103B9000232B13C028E1289FF001299FF00D112449
:103BA000EE53FC4FE40FF51F21E030E001C0220F7F
:103BB000CA95EAF72095308123232083FC01E05445
:103BC000FC4F21E02083DF91CF910895EF92FF9287
:103BD0001F93CF93DF93C62FD0E09E012E503C4F12
:103BE0007901F90190819923D9F0182F45EC6EEFF6
:103BF0000E946D1C41E06DEF812F0E946D1C80ECD6
:103C00008C9FB0018D9F700D1124645B7B4F812FC1
:103C10000E94801C811104C0C054DC4F81E0888365
:103C2000F7011082DF91CF911F91FF90EF900895DF
:103C3000CF92DF92FF920F931F93CF93DF93262FA4
:103C400030E0A90140545C4F6A01FA019081911162
:103C50000AC0F6011082DF91CF911F910F91FF9062
:103C6000DF90CF900895C62FF82E45EC6EEF0E949E
:103C70006D1C40E06DEF8F2D0E946D1CF8E1CF9F11
:103C8000E001112400E010E0F801EC0FFD1FEE53FD
:103C9000FC4F4081602F8F2D0E946D1C0F5F1F4FC6
:103CA0000831110589F7D5CF882311F0FA0101C039
:103CB000FB0109941F93CF93DF93FB011281112322
:103CC00009F48CC0EC010E94940E8272CB3CFCE59E
:103CD000DF0709F46EC048F5C63CECE5DE0709F4E1
:103CE00054C070F4C43C9CE5D90709F442C008F004
:103CF00045C0C33CDC4509F074C00E946D1B70C018
:103D0000C83C9CE5D90709F44AC008F443C0C93C43
:103D1000FCE5DF0709F448C0CA3CDC4509F061C096
:103D200042E25CE161E17CE12DC0C03DECE5DE07F3
:103D300009F450C088F4CD3C9CE5D90709F443C090
:103D4000E8F1CE3CFCE5DF0709F442C0CF3CDC459E
:103D500009F047C082E03FC0C73D9CE5D90728F481
:103D6000C23DDC45E8F589E036C0CE35DD45C1F120
:103D700038C048EA5BE169E97BE104C049E95BE1FD
:103D800068EA7BE10E94541E2BC04EED5BE16BECB8
:103D90007BE1F8CF4BEC5BE16EED7BE1F3CF40E0F4
:103DA0005CE16FEE7BE1EECF4FEE5BE160E07CE14A
:103DB000E9CF41E15CE162E27CE1E4CF44E45CE133
:103DC00067E37CE1DFCF47E35CE164E47CE1DACFE9
:103DD00081E001C084E00E94891B02C011E001C0A3
:103DE00010E0812FDF91CF911F91089581E0089518
:103DF00081E008950C94F81E1092F7031092F603D8
:103E00000895CF92DF92EF92FF92CF93C82F8091C7
:103E1000F6039091F703843F21E0920750F4019656
:103E20009093F7038093F6030A9701F541E0C1E010
:103E300001C040E061E080E00E9483138093F503BD
:103E4000C82ED12CE12CF12C9091F403891302C0DF
:103E5000CC2361F0682F80E00E945104C701B601B5
:103E60000E94FA1E8091F5038093F403CF91FF9096
:103E7000EF90DF90CF9008950F931F93CF93DF9330
:103E8000C42FD22FFC0182818823C9F04093FA030A
:103E90000E94DF239093F9038093F80380E28C0F54
:103EA000883008F057C0C77081E001C0880FCA95FC
:103EB000EAF7DF91CF911F910F910C943206809118
:103EC000FA03481330C08091F8039091F9030E94DF
:103ED000F723883C910538F510E21D0FCD17B9F096
:103EE00080E28C0F883040F4C77081E001C0880FF9
:103EF000CA95EAF70E943906183028F581E09D2F0F
:103F0000977001C0880F9A95EAF70E943206802FB9
:103F10000E9429061830F0F4D77081E001C0880FA4
:103F2000DA95EAF70AC080E28C0F883098F4C770FF
:103F300081E001C0880FCA95EAF7DF91CF911F9108
:103F40000F910C943906802FDF91CF911F910F9123
:103F50000C942906DF91CF911F910F9108950F9333
:103F60009C01CB01243F4CE5340731F188F4293D15
:103F7000FCE53F07D9F02A3D4CE5340779F1283DAF
:103F80003C45A9F506E221EE41EE68ED7CE52BC04B
:103F9000263FFCE53F07E1F0A8F0273F3C4539F517
:103FA00007E225EE46EE67EF7CE51DC007E225EE51
:103FB00045EE69ED7CE517C006E221EE40EE64EFC8
:103FC0007CE511C007E225EE44EE65EF7CE50BC011
:103FD00006E221EE42EE66EF7CE505C008E221E054
:103FE00045EE6AED7CE50E943C1F80E008C0FC01C4
:103FF0008281882319F01092FA0301C081E00F91A9
:104000000895CF93DF93EC01FB018281882309F4AB
:104010001FC1C230FCE5DF0708F41BC1C6319CE5B7
:10402000D90738F09E012B5F3C452930310508F057
:1040300010C10E946C0F9093290480932804C03112
:10404000ECE5DE0709F4C3C008F041C0C8308CE5D8
:10405000D80709F49AC0F0F4C430ECE5DE0709F49F
:1040600087C068F4C2308CE5D80709F477C0C33044
:10407000DC4509F0E3C080912804826076C0C63038
:10408000ECE5DE0709F46EC008F07BC080912804DF
:1040900088606BC0CC308CE5D80709F485C068F423
:1040A000CA30ECE5DE0709F474C008F079C00E945C
:1040B000B00880912804806858C0CE308CE5D807BD
:1040C00009F476C008F07FC0809128048BC0CC3FF3
:1040D000ECE5DE0709F44FC018F5C3318CE5D807CD
:1040E00009F47DC078F4C131ECE5DE0709F473C052
:1040F000C231DC4509F0A2C00E94B00880912804BA
:104100008F7733C0C5318CE5D80709F472C008F445
:1041100086C0CB3FDC4509F091C0809129043EC0A8
:10412000C115FDE5DF0709F45FC058F4CE3F9CE5FB
:10413000D90709F444C008F43FC080912904826083
:104140002DC0C230FDE5DF0709F475C008F45DC07D
:10415000C330DD4509F072C080E06EC08091280454
:10416000816003C08091280480618093280466C028
:104170008091280411C080912904826080932904D1
:104180005DC0809128048062F0CF80912804806413
:10419000ECCF8091280488608460E7CF8160EECF07
:1041A000809128048E7FE1CF809128048D7FDDCF20
:1041B00080912804877FD9CF8091290418C08091ED
:1041C00029048D7FDBCF809128048F7ECECF809114
:1041D00028048F7DCACF809128048F7BC6CF809121
:1041E0002804877F8B7FC1CF809129048D7F8E7FAC
:1041F000C5CF8091280482FB222720F991E09227E5
:1042000090FB82F990FB83F9B0CF80912904982F1D
:10421000909591708E7F892B90FB81F9AFCF0E9492
:10422000B0088091280487FB222720F991E092278B
:1042300090FB87F99ACF81E00E94031080912804B7
:10424000909129040E947D0F0E94B00880E001C077
:1042500081E0DF91CF910895CF93DF9386319C4524
:1042600041F5EB010E94940E982F8A81209154020F
:1042700030915502882379F09A7A81E009F480E040
:104280008093FB03911102C069E201C065E3C9019B
:104290000E9428230AC08091FB03811102C069E2B9
:1042A00001C065E3C9010E9433230E94E60E80E04D
:1042B00001C081E0DF91CF9108951092B9008CE0A8
:1042C0008093B80008959F92AF92BF92CF92DF92F1
:1042D000EF92FF920F931F93CF93DF93B82EEB01D2
:1042E0000E94DF236C01C431D10558F0CF3F8FEF1E
:1042F000D80759F0CE0164E170E00E94192B7B01D0
:1043000007C0EE24E394F12C03C025E0E22EF12C4B
:1043100084E8A82E94EA992E1092BC009092BC00DA
:104320000E94DF238C018091BC0087FD08C00E94A1
:10433000DF23801B910B8E159F05A8F32AC0809167
:10434000B900887F883041F08091B900887F803142
:1043500019F00FEF1FEF1FC0B092BB00A092BC007E
:104360000E94DF238C018091BC0087FD08C00E9461
:10437000DF23801B910B8E159F05A8F30AC0809147
:10438000B900887F883111F0803419F700E010E01F
:104390000EC00EEF1FEFCF3F8FEFD80709F4BCCF51
:1043A000C6010E94F7238C179D0708F4B5CFC801FA
:1043B000DF91CF911F910F91FF90EF90DF90CF9001
:1043C000BF90AF909F9008950F931F93CF93DF936B
:1043D000EB018093BB0084E88093BC000E94DF2344
:1043E0008C018091BC0087FD0EC0CF3F8FEFD807B6
:1043F000C1F30E94DF23801B910B8C179D0788F36C
:104400008EEF9FEF0CC02091B900287F81E090E0F3
:10441000283211F480E090E0919581959109DF9127
:10442000CF911F910F910895CF92DF92EF92FF925B
:104430000F931F93CF93DF936B018A017901B90129
:104440000E946321E6010C0D1D1DC017D10761F408
:1044500024E92093BC00DF91CF911F910F91FF9031
:10446000EF90DF90CF90089597FDF2CFB70189913B
:104470000E94E421EACF9093010480930004089500
:10448000E0910004F0910104309721F00190F08157
:10449000E02D099480E00895E0910004F09101047A
:1044A000309799F020916602222359F02091280438
:1044B00027FF07C0DC012C9111962C93119725E062
:1044C0002C930280F381E02D099408952091FE033E
:1044D0003091FF032817390771F09093FF03809301
:1044E000FE03E0910004F0910104309721F0068072
:1044F000F781E02D099408952091FC033091FD038C
:104500002817390771F09093FD038093FC03E09125
:104510000004F0910104309721F00084F185E02D32
:1045200009940895FC01329680916602882331F047
:104530008091280487FF02C09EE101C096E080E0E0
:10454000915028F021912223D9F38F5FF9CF08955C
:10455000662351F1209166022223E9F0209128047C
:1045600027FF19C0462F4695469546954E31E0F4F3
:10457000677021E030E002C0220F331F6A95E2F736
:10458000FC01E40FF11D828190E02823392381E0B2
:10459000232B69F409C0FC01329608962191621719
:1045A00029F0E817F907D1F780E0089581E0089530
:1045B0009C01FC0132969FEF80E04191461789F003
:1045C0009F3F19F4411101C0982F8F5F8630A9F7E2
:1045D0009F3F39F0F901E90FF11D97FDFA956283CC
:1045E000089508959C012A5F3F4FFC0142814613C4
:1045F00001C01282019682179307B9F70895262FFA
:104600002695269526952E3168F4FC01E20FF11DC2
:10461000677021E030E001C0220F6A95EAF78281DD
:10462000282B22830895262F2695269526952E3110
:1046300070F4FC01E20FF11D677021E030E001C071
:10464000220F6A95EAF72095828128232283089514
:1046500020916602222329F02091280427FD0C9442
:10466000FF220C94D82220916602222329F0209167
:10467000280427FD0C9413230C94F2222091660247
:10468000FC013296222331F08091280487FF02C07A
:104690008EE101C086E0DF011D928A95E9F7089559
:1046A000089508950C9451230C945123CF930E94A4
:1046B00054230E946A140E945223C0E08C2F0E944F
:1046C0006113892B29F4CF5FC630C1F780E001C0A8
:1046D00081E0CF9108950C9451230C946B23809129
:1046E000E805843061F10E946D2380E00E943F055F
:1046F00081E00E945E1B1092020420E488E190E0B9
:104700000FB6F894A895809360000FBE20936000C8
:1047100083B7817F846083BF83B7816083BF7894D0
:10472000889583B78E7F83BF0FB6F894A895809144
:104730006000886180936000109260000FBE089551
:104740000C9451230E94B0080E9440220E943F0511
:1047500080E00E945E1B0C94A0231F920F920FB664
:104760000F9211248F939F93AF93BF938091020474
:10477000811113C08091E0059091E105A091E205BF
:10478000B091E3054196A11DB11D8093E005909382
:10479000E105A093E205B093E305BF91AF919F912E
:1047A0008F910F900FBE0F901F90189582E084BDDF
:1047B00093E095BD9AEF97BD80936E0008952FB753
:1047C000F8948091E0059091E105A091E205B09107
:1047D000E3052FBF08952FB7F8946091E00570911D
:1047E000E1058091E2059091E3052FBF08959C01BA
:1047F0004FB7F8948091E0059091E105A091E20512
:10480000B091E3054FBF821B930B0895CF92DF92C7
:10481000EF92FF922FB7F894C090E005D090E10599
:10482000E090E205F090E3052FBFA7019601261B5B
:10483000370B480B590BCA01B901FF90EF90DF907D
:10484000CF90089578941F920F920FB60F92112473
:104850008F939F93AF93BF938091E0059091E10573
:10486000A091E205B091E3050196A11DB11D8093D1
:10487000E0059093E105A093E205B093E305BF91B5
:10488000AF919F918F910F900FBE0F901F90189531
:1048900081E08093E00080E28093D8001092C9000C
:1048A0008FE19EE40197F1F700C0000087E090EBF4
:1048B000DC018093F1059093F205A093F305B0938A
:1048C000F4059CE088E10FB6F894A8958093600009
:1048D0000FBE90936000FFCF9093FF028093FE0283
:1048E00008958091260408959091E805943031F55B
:1048F00080930304709305046093040482E0809322
:10490000E9008FEF9091E800815095FD06C095ED8C
:104910009A95F1F700008111F5CF8091E80085FFAD
:104920000DC040E050E063E070E083E094E00E945E
:104930007B268091E8008E778093E8000895BC0183
:1049400084E00C947424BC0183E00C947424CF9311
:10495000DF9320916602222339F02091280427FF5B
:1049600003C060E222E002C068E021E02093E90099
:104970002FEF3091E800215035FD06C035ED3A9516
:10498000F1F700002111F5CF2091E80025FF1DC0AF
:10499000EC0180916602811105C040E050E068E0C2
:1049A00070E003C070E040E050E0CE010E947B2642
:1049B0008091E8008E778093E80080E2FE01A6E017
:1049C000B4E001900D928A95E1F7DF91CF910895BF
:1049D00008958091E705811109C00E940C280E946A
:1049E00069288091E20084608093E200089510922B
:1049F000E705089508950895089542E061EC81E087
:104A00000E94852742E261EC82E00C948527809128
:104A1000EA05833009F460C030F4813071F08230EF
:104A200009F499C008958A3009F485C08B3009F4DF
:104A30006BC0893009F0A7C020C08091E905813A98
:104A400009F0A1C08091E800877F8093E800809101
:104A5000ED059091EE05892B21F460E286E094E06B
:104A600003C060E080E090E070E00E94C626809184
:104A7000E8008B778093E80008958091E905813202
:104A800009F081C08091ED059091EE05029708F044
:104A90007AC08091E800877F8093E8008091E800E9
:104AA00082FD05C08091E8058111F8CF6CC020918E
:104AB000F3008091F20090E0922B029729F480910C
:104AC000F1008B7F813021F48091F10080932604E6
:104AD0008091E8008B7753C08091E905813A09F015
:104AE00052C08091ED059091EE05892B09F04BC0E5
:104AF0008091E800877F8093E8008091E80080FF44
:104B0000FCCF8091660236C08091E9058132D9F5EB
:104B10008091ED059091EE05892BA9F58091E80033
:104B2000877F8093E8000E94BA278091EB058093ED
:104B300066020C94B0088091E905813221F58091DC
:104B4000E800877F8093E8000E94BA278091EC05F7
:104B50008093270408958091E905813AA1F480911A
:104B6000E800877F8093E8008091E80080FFFCCF19
:104B7000809127048093F1008091E8008E778093E4
:104B8000E8000C94BA27089584B7877F84BF0FB6D6
:104B9000F894A895809160008861809360001092DD
:104BA00060000FBE90E080E80FB6F894809361003B
:104BB000909361000FBE0C9433100E940C280E9449
:104BC0006928E2EEF0E080818460808378940E941E
:104BD000FE2A0E9441108CE592E00C943B228091C9
:104BE000E8058530A9F48091E805853079F40E94C4
:104BF0006F238091E6058823B1F30E945623882312
:104C000091F30E9465260E94B008EDCF0E94A22376
:104C10000C9454100C940C26292F33272330310583
:104C2000C9F060F42130310581F02230310509F0FE
:104C300044C08BE390E026E137E043C021323105E8
:104C4000E1F02232310549F138C082E190E021E5FE
:104C500037E037C099278130910549F028F0029755
:104C600061F5E4EEF6E005C0E2E1F7E002C0EEEF48
:104C7000F6E0849190E09F0124C06115710541F038
:104C800061307105D1F489E090E021E437E019C08A
:104C900089E090E028E237E014C06115710541F029
:104CA0006130710551F48DE690E023E637E009C0EC
:104CB00080E490E020ED37E004C080E090E020E068
:104CC00030E0FA0131832083089580E189BD82E1DB
:104CD00089BD09B400FEFDCF8091D8008F7D8093FF
:104CE000D8008091E00082608093E0008091E00035
:104CF00081FDFCCF0895CF92DF92EF92FF920F9348
:104D00001F93CF93DF93EC018B017A010E94D92787
:104D1000811133C0E114F10439F0F70180819181F0
:104D2000081B190BC80FD91FC12CD12C0115110557
:104D300019F18091E80085FD16C08091E8008E771A
:104D40008093E800E114F10449F0F701808191813A
:104D5000C80ED91ED182C08285E00FC00E94D9271B
:104D6000882321F30AC089918093F1000150110931
:104D7000FFEFCF1ADF0ADACF80E0DF91CF911F91EA
:104D80000F91FF90EF90DF90CF9008952091EF0565
:104D90003091F0052617370748F06115710539F491
:104DA0002091E8002E772093E80001C0B901FC01B2
:104DB00020E06115710579F18091E8058823F1F112
:104DC0008530F1F18091E80083FD3CC08091E800DE
:104DD00082FD2EC08091E80080FFEBCF2091F30090
:104DE0008091F20090E0922B6115710551F08830AE
:104DF000910538F421912093F100615071090196D9
:104E0000F3CF21E0089709F020E08091E8008E7749
:104E10008093E800CECF2111CFCF0AC08091E80562
:104E2000882361F0853061F08091E80083FD0AC03D
:104E30008091E80082FFF2CF80E0089582E008953B
:104E400083E0089581E008952091EF053091F00509
:104E50002617370748F06115710539F42091E800ED
:104E60002E772093E80001C0B901FC0120E0611514
:104E7000710591F18091E805882309F440C08530DF
:104E800009F43FC08091E80083FD3DC08091E800B7
:104E900082FD2FC08091E80080FFE9CF2091F300D0
:104EA0008091F20090E0922B6115710559F08830E5
:104EB000910540F424912093F100319661507109DD
:104EC0000196F2CF21E0089709F020E08091E800F8
:104ED0008E778093E800CBCF2111CCCF0AC0809190
:104EE000E805882361F0853061F08091E80083FD5A
:104EF0000AC08091E80082FFF2CF80E0089582E04E
:104F0000089583E0089581E00895982F973068F51B
:104F10009093E900981739F07091EC002091ED0022
:104F20005091F00003C0242F762F50E021FD02C0E5
:104F30009F5FECCF3091EB003E7F3093EB003091E0
:104F4000ED003D7F3093ED003091EB003160309308
:104F5000EB007093EC002093ED005093F000209153
:104F6000EE0027FDE5CF80E008958F708093E90083
:104F700081E008958091E90587FF11C08091E800E4
:104F800082FD05C08091E8058111F8CF11C08091A4
:104F9000E8008B770BC08091E805882349F0809169
:104FA000E80080FFF8CF8091E8008E778093E800DA
:104FB00008952091E4003091E50095E64091EC00E1
:104FC000842F817040FF23C08091E80080FD1DC0C8
:104FD0008091E805882399F0853099F08091EB0065
:104FE00085FD11C04091E4005091E500241735077C
:104FF00029F3915011F09A01E1CF84E0089582E005
:10500000089583E0089581E0089580E00895409137
:10501000E80042FFDDCF08950E947A280E9482288E
:10502000E0EEF0E0808181608083E8EDF0E0808157
:105030008F77808319BCA7EDB0E08C918E7F8C9325
:1050400080818F7E80831092E70508950F931F93D0
:10505000CF93DF930E947A280E948228C8EDD0E087
:1050600088818F77888388818068888388818F7D15
:10507000888319BC1092E8051092E4051092E605A9
:105080001092E50500EE10E0F80180818B7F8083AF
:1050900088818160888342E060E080E00E9485270B
:1050A000E1EEF0E080818E7F8083E2EEF0E08081AF
:1050B00081608083808188608083F80180818E7F19
:1050C0008083888180618883DF91CF911F910F91C8
:1050D0000895E8EDF0E080818F7E8083E7EDF0E0D9
:1050E00080818160808384E082BF81E08093E705D6
:1050F0000C942628E8EDF0E080818E7F808310926A
:10510000E20008951092DA001092E10008951F92D3
:105110000F920FB60F9211242F933F934F935F93EB
:105120006F937F938F939F93AF93BF93EF93FF936F
:105130008091E10082FF0BC08091E20082FF07C0F6
:105140008091E1008B7F8093E1000E94FD2A809195
:10515000DA0080FF1FC08091D80080FF1BC08091C3
:10516000DA008E7F8093DA008091D90080FF0DC035
:1051700080E189BD82E189BD09B400FEFDCF81E0F7
:105180008093E8050E94E92405C019BC1092E80547
:105190000E94F7248091E10080FF19C08091E20015
:1051A00080FF15C08091E2008E7F8093E2008091A5
:1051B000E20080618093E2008091D8008062809359
:1051C000D80019BC85E08093E8050E94FB248091FB
:1051D000E10084FF30C08091E20084FF2CC080E1B8
:1051E00089BD82E189BD09B400FEFDCF8091D80060
:1051F0008F7D8093D8008091E1008F7E8093E100C5
:105200008091E2008F7E8093E2008091E2008160D5
:105210008093E2008091E405882311F084E007C0C8
:105220008091E30087FD02C081E001C083E08093AC
:10523000E8050E94FC248091E10083FF29C0809151
:10524000E20083FF25C08091E100877F8093E10029
:1052500082E08093E8051092E4058091E1008E7F62
:105260008093E1008091E2008E7F8093E200809144
:10527000E20080618093E20042E060E080E00E9412
:1052800085278091F00088608093F0000E94FA24C6
:10529000FF91EF91BF91AF919F918F917F916F910E
:1052A0005F914F913F912F910F900FBE0F901F90E4
:1052B00018951F920F920FB60F9211242F933F93C0
:1052C0004F935F936F937F938F939F93AF93BF930E
:1052D000CF93DF93EF93FF93C091E900CF7080915C
:1052E000EC00D82FD17080FDD0E81092E9008091B9
:1052F000F000877F8093F00078940E949D2910929F
:10530000E9008091F00088608093F000CD2BCF7091
:10531000C093E900FF91EF91DF91CF91BF91AF91E1
:105320009F918F917F916F915F914F913F912F91BD
:105330000F900FBE0F901F9018951F93CF93DF9380
:10534000CDB7DEB7AA970FB6F894DEBF0FBECDBFBC
:10535000E9EEF5E08091F100819325E0E13FF2076D
:10536000C9F70E9407258091E80083FF2EC1809134
:10537000E9059091EA05492F50E04A30510508F0BF
:1053800024C1FA01EE57FF4F0C94412B803821F0D5
:10539000823809F01AC108C08091E5059091E605B0
:1053A000992389F082600FC08091ED058F7087305E
:1053B00008F00BC18093E9008091EB0085FB882702
:1053C00080F91092E9009091E800977F9093E800AF
:1053D0008093F1001092F100D1C0282F2D7F09F0A9
:1053E000F4C0882319F0823061F0EFC08091EB05A2
:1053F000813009F0EAC0933009F080E08093E6053F
:105400002EC08091EB0581112AC08091ED058F702F
:105410002FEF280F263008F0D8C08093E9002091A4
:10542000EB0020FF1CC0933021F48091EB008062E0
:1054300014C09091EB0090619093EB0021E030E07C
:10544000A90102C0440F551F8A95E2F74093EA0074
:105450001092EA008091EB0088608093EB0010923C
:10546000E9008091E800877F8093E8000E94BA27D6
:10547000ACC08111AAC01091EB051F778091E300A9
:105480008078812B8093E3008091E800877F809370
:10549000E8000E94BA278091E80080FFFCCF80914D
:1054A000E30080688093E300111102C082E001C034
:1054B00083E08093E80589C08058823008F085C079
:1054C0008091EB059091EC058C3D53E0950779F5C3
:1054D00083E08A838AE289834FB7F894DE011396CA
:1054E00020E03EE051E2E32FF0E050935700E491DA
:1054F00020FF03C0E295EF703F5FEF708E2F90E0CA
:10550000EA3010F0C79601C0C0968D939D932F5F2F
:10551000243149F74FBF8091E800877F8093E800EE
:105520006AE270E0CE0101960E94C62616C0609124
:10553000ED057091EE05AE014F5F5F4F0E940A26A8
:10554000BC01892B09F441C09091E800977F9093AA
:10555000E80089819A810E9424278091E8008B7756
:105560008093E80032C0803881F58091E800877F21
:105570008093E8008091E4058093F1008091E80039
:105580008E7772CF811121C08091EB059091EC054F
:1055900099270297D4F48091E800877F8093E800F0
:1055A0008091EB058093E4050E94BA278091E40581
:1055B000811106C08091E30087FD02C081E001C037
:1055C00084E08093E8050E94FD248091E80083FF39
:1055D0000AC08091E800877F8093E8008091EB000B
:1055E00080628093EB00AA960FB6F894DEBF0FBEE0
:1055F000CDBFDF91CF911F9108950895CF938091F2
:10560000E8058823A1F0C091E900CF709091EC00EB
:10561000892F817090FD80E8C82B1092E90080915D
:10562000E80083FD0E949D29CF70C093E900CF91CF
:105630000895AA1BBB1B51E107C0AA1FBB1FA617D9
:10564000B70710F0A61BB70B881F991F5A95A9F72B
:1056500080959095BC01CD01089597FB072E16F417
:10566000009407D077FD09D00E94192B07FC05D0C4
:105670003EF4909581959F4F0895709561957F4F69
:105680000895EE0FFF1F0590F491E02D09948F927D
:105690009F92AF92BF92CF92DF92EF92FF92CF9301
:1056A000DF93EC01688179818A819B8161157105A5
:1056B0008105910521F464E279ED8BE597E02DE118
:1056C00033EF41E050E00E94022C49015A019B0156
:1056D000AC01A7EAB1E40E94212C6B017C01ACEE85
:1056E000B4EFA50194010E942F2CDC01CB018C0D9D
:1056F0009D1DAE1DBF1DB7FF03C00197A109B04896
:1057000088839983AA83BB839F77DF91CF91FF9092
:10571000EF90DF90CF90BF90AF909F908F900895C3
:105720000E94472B089580E091E00E94472B089546
:10573000A0E0B0E08093000190930101A0930201EA
:10574000B09303010895FB01DC0104C08D91019029
:10575000801921F441505040C8F7881B990B0895D7
:10576000DC01CB01FC01F999FECF06C0F2BDE1BD21
:10577000F89A319600B40D9241505040B8F7089510
:10578000F999FECF92BD81BDF89A992780B5089509
:10579000A8E1B0E042E050E00C94B22BDC01A40F91
:1057A000B51F4150504048F0CB01840F951F2E91FA
:1057B0000E94DF2B41505040D0F70895262FF999D1
:1057C000FECF92BD81BDF89A019700B4021639F060
:1057D0001FBA20BD0FB6F894FA9AF99A0FBE089531
:1057E0000396272F0E94DF2B0E94DE2B252F0E947D
:1057F000DF2B242F0C94DF2B0196272F0E94DF2B09
:105800000C94DE2B052E97FB1EF400940E94192C9D
:1058100057FD07D00E94342C07FC03D04EF40C94A3
:10582000192C50954095309521953F4F4F4F5F4F24
:10583000089590958095709561957F4F8F4F9F4FFC
:1058400008950E94562CA59F900DB49F900DA49F83
:10585000800D911D11240895B7FF0C94212C0E94F6
:10586000212C821B930B0895A1E21A2EAA1BBB1BAD
:10587000FD010DC0AA1FBB1FEE1FFF1FA217B3071C
:10588000E407F50720F0A21BB30BE40BF50B661F32
:10589000771F881F991F1A9469F7609570958095F6
:1058A00090959B01AC01BD01CF010895A29FB0016D
:1058B000B39FC001A39F700D811D1124911DB29F44
:0E58C000700D811D1124911D0895F894FFCFE5
:1058CE000100000000FF0102030405060708090A93
:1058DE000B0C0E0F101112131415161718191A1B84
:1058EE001C1D1E1F202122232425262728292A2B72
:1058FE002C2D2E2F30313233343536373847393A56
:10590E003BFF3C3D3E3F40414243444550460D48DF
:10591E00494AFFFFFF4BFFFFFF4C4D4E4F5100001A
:10592E001E002D003C004B005A00690078008700D5
:10593E009600A500B400C300D200E000000D0F0DCC
:10594E001E0D2D0D3C0D4B0D5A0D690D780D870D4D
:10595E00960DA50DB40DC30DE00D001A0F1A1E1AEB
:10596E002D1A3C1A4B1A5A1A691A781A871A961A4D
:10597E00A51AB41AC31AE01A00270F271E272D27BF
:10598E003C274B275A276927782787279627A5274D
:10599E00C327E02700341E342D343C344B345A34A4
:1059AE006934783487349634A534C334D234004005
:1059BE000F401E405A409640A540B440C340D240CE
:1059CE00E040040404040404040404040404040471
:1059DE000404040404040404040404040404040479
:1059EE000404040404040404040404040404040469
:1059FE000404040404040404040404040404040459
:105A0E000404040404040404040404040404040448
:105A1E00040404047F030300FF00FFFF7124A72486
:105A2E00E824A3249F240100FFFFFD7FFF7FFF7F5B
:105A3E00FF7FFF7FFF7FE200E900EA00B500B600BE
:105A4E00B700CD008301CC008A019201940121029E
:105A5E00230224022502260227022A02B300B400E2
:105A6E006F007000818283E200E900EA00B500B6A3
:105A7E0000B700CD008301CC008A01920194012170
:105A8E0002230224022502260227022A02B300B4B0
:105A9E00006F007000818283959496973435366638
:105AAE0067F7F6F5F4F1F09392333231300031317D
:0E5ABE00295A1B750A4F1CFB1C2A1D471C0091
:00000001FF
